{
  "_format": "hh-sol-artifact-1",
  "contractName": "CardFacet",
  "sourceName": "contracts/facets/CardFacet.sol",
  "abi": [
    {
      "inputs": [
        {
          "internalType": "string",
          "name": "_title",
          "type": "string"
        },
        {
          "internalType": "string",
          "name": "_url",
          "type": "string"
        }
      ],
      "name": "createCard",
      "outputs": [],
      "stateMutability": "nonpayable",
      "type": "function"
    },
    {
      "inputs": [],
      "name": "getCardCounts",
      "outputs": [
        {
          "internalType": "uint256",
          "name": "",
          "type": "uint256"
        }
      ],
      "stateMutability": "view",
      "type": "function"
    },
    {
      "inputs": [
        {
          "internalType": "bytes4",
          "name": "_interfaceID",
          "type": "bytes4"
        }
      ],
      "name": "supportsInterface",
      "outputs": [
        {
          "internalType": "bool",
          "name": "",
          "type": "bool"
        }
      ],
      "stateMutability": "view",
      "type": "function"
    }
  ],
  "bytecode": "0x608060405234801561001057600080fd5b5061084c806100206000396000f3fe608060405234801561001057600080fd5b50600436106100415760003560e01c806301ffc9a71461004657806309c8cfb31461007657806363ff532214610092575b600080fd5b610060600480360381019061005b919061043c565b6100b0565b60405161006d9190610538565b60405180910390f35b610090600480360381019061008b9190610469565b6100b7565b005b61009a6101c7565b6040516100a79190610583565b60405180910390f35b6000919050565b60006100c1610222565b90506000600182600501546100d69190610610565b9050808260050181905550600060405180608001604052808381526020013373ffffffffffffffffffffffffffffffffffffffff168152602001868152602001858152509050808360040160008481526020019081526020016000206000820151816000015560208201518160010160006101000a81548173ffffffffffffffffffffffffffffffffffffffff021916908373ffffffffffffffffffffffffffffffffffffffff160217905550604082015181600201908051906020019061019f929190610314565b5060608201518160030190805190602001906101bc929190610314565b509050505050505050565b6000806101d2610222565b90506102176040518060400160405280601381526020017f67657443617264436f756e7473203a3a20256400000000000000000000000000815250826005015461024f565b806005015491505090565b6000807fc8fcad8db84d3cc18b4c41d551ea0ee66dd599cde068d998e57d5e09332c131c90508091505090565b6102e78282604051602401610265929190610553565b6040516020818303038152906040527f9710a9d0000000000000000000000000000000000000000000000000000000007bffffffffffffffffffffffffffffffffffffffffffffffffffffffff19166020820180517bffffffffffffffffffffffffffffffffffffffffffffffffffffffff83818316178352505050506102eb565b5050565b60008151905060006a636f6e736f6c652e6c6f679050602083016000808483855afa5050505050565b828054610320906106ea565b90600052602060002090601f0160209004810192826103425760008555610389565b82601f1061035b57805160ff1916838001178555610389565b82800160010185558215610389579182015b8281111561038857825182559160200191906001019061036d565b5b509050610396919061039a565b5090565b5b808211156103b357600081600090555060010161039b565b5090565b60006103ca6103c5846105c3565b61059e565b9050828152602081018484840111156103e6576103e56107df565b5b6103f18482856106a8565b509392505050565b600081359050610408816107ff565b92915050565b600082601f830112610423576104226107da565b5b81356104338482602086016103b7565b91505092915050565b600060208284031215610452576104516107e9565b5b6000610460848285016103f9565b91505092915050565b600080604083850312156104805761047f6107e9565b5b600083013567ffffffffffffffff81111561049e5761049d6107e4565b5b6104aa8582860161040e565b925050602083013567ffffffffffffffff8111156104cb576104ca6107e4565b5b6104d78582860161040e565b9150509250929050565b6104ea81610666565b82525050565b60006104fb826105f4565b61050581856105ff565b93506105158185602086016106b7565b61051e816107ee565b840191505092915050565b6105328161069e565b82525050565b600060208201905061054d60008301846104e1565b92915050565b6000604082019050818103600083015261056d81856104f0565b905061057c6020830184610529565b9392505050565b60006020820190506105986000830184610529565b92915050565b60006105a86105b9565b90506105b4828261071c565b919050565b6000604051905090565b600067ffffffffffffffff8211156105de576105dd6107ab565b5b6105e7826107ee565b9050602081019050919050565b600081519050919050565b600082825260208201905092915050565b600061061b8261069e565b91506106268361069e565b9250827fffffffffffffffffffffffffffffffffffffffffffffffffffffffffffffffff0382111561065b5761065a61074d565b5b828201905092915050565b60008115159050919050565b60007fffffffff0000000000000000000000000000000000000000000000000000000082169050919050565b6000819050919050565b82818337600083830152505050565b60005b838110156106d55780820151818401526020810190506106ba565b838111156106e4576000848401525b50505050565b6000600282049050600182168061070257607f821691505b602082108114156107165761071561077c565b5b50919050565b610725826107ee565b810181811067ffffffffffffffff82111715610744576107436107ab565b5b80604052505050565b7f4e487b7100000000000000000000000000000000000000000000000000000000600052601160045260246000fd5b7f4e487b7100000000000000000000000000000000000000000000000000000000600052602260045260246000fd5b7f4e487b7100000000000000000000000000000000000000000000000000000000600052604160045260246000fd5b600080fd5b600080fd5b600080fd5b600080fd5b6000601f19601f8301169050919050565b61080881610672565b811461081357600080fd5b5056fea26469706673582212206395236da2da755540bb551bae0eb6bdd8a899d22de056f80b0f23c02aa83d3c64736f6c63430008060033",
  "linkReferences": {},
  "deployedLinkReferences": {}
}