{
  "_format": "hh-sol-artifact-1",
  "contractName": "CardFacet",
  "sourceName": "contracts/facets/CardFacet.sol",
  "abi": [
    {
      "inputs": [
        {
          "internalType": "string",
          "name": "_title",
          "type": "string"
        },
        {
          "internalType": "string",
          "name": "_url",
          "type": "string"
        }
      ],
      "name": "createCard",
      "outputs": [],
      "stateMutability": "nonpayable",
      "type": "function"
    }
  ],
  "bytecode": "0x6080604052600060015534801561001557600080fd5b50610487806100256000396000f3fe608060405234801561001057600080fd5b506004361061002b5760003560e01c806309c8cfb314610030575b600080fd5b61004a60048036038101906100459190610256565b61004c565b005b60006001549050600180546100619190610323565b600181905550600060405180608001604052808381526020013373ffffffffffffffffffffffffffffffffffffffff1681526020018581526020018481525090508060008060015481526020019081526020016000206000820151816000015560208201518160010160006101000a81548173ffffffffffffffffffffffffffffffffffffffff021916908373ffffffffffffffffffffffffffffffffffffffff160217905550604082015181600201908051906020019061012492919061014b565b50606082015181600301908051906020019061014192919061014b565b5090505050505050565b82805461015790610392565b90600052602060002090601f01602090048101928261017957600085556101c0565b82601f1061019257805160ff19168380011785556101c0565b828001600101855582156101c0579182015b828111156101bf5782518255916020019190600101906101a4565b5b5090506101cd91906101d1565b5090565b5b808211156101ea5760008160009055506001016101d2565b5090565b60006102016101fc846102f3565b6102c2565b90508281526020810184848401111561021957600080fd5b610224848285610383565b509392505050565b600082601f83011261023d57600080fd5b813561024d8482602086016101ee565b91505092915050565b6000806040838503121561026957600080fd5b600083013567ffffffffffffffff81111561028357600080fd5b61028f8582860161022c565b925050602083013567ffffffffffffffff8111156102ac57600080fd5b6102b88582860161022c565b9150509250929050565b6000604051905081810181811067ffffffffffffffff821117156102e9576102e8610422565b5b8060405250919050565b600067ffffffffffffffff82111561030e5761030d610422565b5b601f19601f8301169050602081019050919050565b600061032e82610379565b915061033983610379565b9250827fffffffffffffffffffffffffffffffffffffffffffffffffffffffffffffffff0382111561036e5761036d6103c4565b5b828201905092915050565b6000819050919050565b82818337600083830152505050565b600060028204905060018216806103aa57607f821691505b602082108114156103be576103bd6103f3565b5b50919050565b7f4e487b7100000000000000000000000000000000000000000000000000000000600052601160045260246000fd5b7f4e487b7100000000000000000000000000000000000000000000000000000000600052602260045260246000fd5b7f4e487b7100000000000000000000000000000000000000000000000000000000600052604160045260246000fdfea26469706673582212201620a18b6db9515722b122fd41c37d398e3c19db1ddfd1cc1c44887984b9487064736f6c63430008000033",
  "linkReferences": {},
  "deployedLinkReferences": {}
}